S01100004A5F537065616B65722E737265639F
S113000045C0000061C000005FC000005DC000008A
S11300105BC0000086C40000B6C2000055C00000EA
S113002053C0000051C000004FC000004DC000008C
S11300304BC0000049C0000047C0000045C000009C
S1130040B2C1000041C000003FC000003DC000003C
S11300503BC0000039C0000037C0000035C00000BC
S113006033C0000031C000002FC000002DC00000CC
S11300702BC0000029C0000027C0000025C00000DC
S113008023C0000021C000001FC0000011241FBEB7
S1130090CFEFD0E1DEBFCDBF11E0A0E0B1E0E6E3F9
S11300A0F1E100E00BBF02C007900D92AC3BB10739
S11300B0D9F721E0ACEBB1E001C01D92AE3EB2072E
S11300C0E1F7D4D40C9499089BCF10929B0088E15B
S11300D080939A0086E080939D001092980088E0B7
S11300E080939900089590919B0095FFFCCF809395
S11300F09C00089580919B008823E4F780919C00E4
S11301000895CF93DF93EC0102C02196ECDF888140
S11301108111FBCFDF91CF9108956093700094EA31
S113012090937400909174009923E4F74130510541
S113013009F481608093730084E880937400809153
S113014074008823E4F7089584E980937400089583
S113015083E081BB82B3836082BB08958093730084
S113016084E880937400809174008823E4F70895F0
S11301700F931F93CF93DF9300D0CDB7DEB7807F6B
S1130180982F9C60998388608A8340E050E068E4FB
S113019070E08EE4C2DF00E010E010C0E1E0F0E0C7
S11301A0EC0FFD1FE00FF11F8081D8DF8FE99FE086
S11301B00197F1F700C000000F5F1F4F02301105D7
S11301C06CF3C2DF0F900F90DF91CF911F910F91CD
S11301D008950F931F93CF93DF9300D000D0CDB732
S11301E0DEB7982F907F292F2C60298398609A83FB
S11301F020E1829FC0011124982F9C609B8388601A
S11302008C8340E050E068E470E08EE486DF00E038
S113021010E010C0E1E0F0E0EC0FFD1FE00FF11F73
S113022080819CDF8FE99FE00197F1F700C0000017
S11302300F5F1F4F043011056CF386DF0F900F9092
S11302400F900F90DF91CF911F910F9108952FEF91
S113025080E792E0215080409040E1F700C0000028
S113026080E386DF8FE59AEE0197F1F700C0000086
S113027080E37EDF8FE19EE40197F1F700C0000088
S113028080E376DF8FE891E00197F1F700C000008A
S113029080E26EDF87EC90E00197F1F700C0000088
S11302A088E297DF87EC90E00197F1F700C0000047
S11302B08CE08FDF87EC90E00197F1F700C000003D
S11302C081E087DF8FED9EE20197F1F700C0000027
S11302D086E07FDF9FEF20E782E09150204080405E
S11302E0E1F700C0000008950F931F93CF93DF93AD
S11302F000D000D0CDB7DEB7982F907F292F2D6086
S1130300298399609A8320E1829FC0011124982F48
S11303109D609B8389608C8340E050E068E470E0DA
S11303208EE4FBDE00E010E010C0E1E0F0E0EC0F52
S1130330FD1FE00FF11F808111DF8FE99FE001971E
S1130340F1F700C000000F5F1F4F043011056CF37C
S1130350FBDE0F900F900F900F90DF91CF911F91C4
S11303600F910895CF93DF93EC0102C02196BCDF77
S113037088818111FBCFDF91CF91089590E4899F0B
S1130380600D1124862F806824CF089580E389BFEF
S113039010926A0081E08ABF7894089584E083BF54
S11303A081E087BF08951F920F920FB60F92112418
S11303B08F939F938091E401882349F08091E50114
S11303C09091E60101969093E6018093E5019F9157
S11303D08F910F900FBE0F901F901895CF93C82F39
S11303E0811109C085E091E08CDE6DE080E0C6DF1C
S11303F08FE091E0B7DFC13049F482E191E081DE22
S11304006DE080E0BBDF8CE191E0ACDFC23049F409
S11304108FE191E076DE6DE080E0B0DF89E291E08B
S1130420A1DFCF9108958091E701811108C081E097
S1130430D0DE8CE291E096DF83E391E093DF80915C
S1130440E701813059F4C5DE8CE291E08BDF87E36C
S113045091E088DF8091E80190E0C0DF8091E701BE
S1130460823041F481E0B5DE8CE291E07BDF8BE306
S113047091E078CF08950F931F93CF93DF938C016E
S113048080E090E005C0F801E80FF91F10820196A2
S113049084319105C4F3C0E0D0E008C02BDE8A307B
S11304A041F0F801EC0FFD1F80832196C331D10583
S11304B0A8F3C00FD11F1882DF91CF911F910F9124
S11304C0089580E090E009C0FC01ED52FE4F2081C8
S11304D0FC01E053FE4F2083019681319105A4F382
S11304E080E090E012C0FC01E053FE4F20812032F6
S11304F059F406C0FC01E053FE4F20E2208301962C
S113050084319105BCF304C00196843191055CF3F8
S11305108091D0018F3281F40AC0FC01E053FE4F78
S11305202081FC01E153FE4F2083019602C081E04B
S113053090E0843191058CF30895DC0120E030E0F3
S113054012C0A901FD01E20FF31F9081911109C0AE
S113055041505109A40FB51F8C9180838EE28C9376
S113056008952F5F3F4F243131055CF3089580E0F7
S113057090E005C0FC01E454FE4F108201968431E2
S11305809105C4F308951F920F920FB60F92112490
S11305900BB60F922F933F934F935F936F937F9379
S11305A08F939F93AF93BF93EF93FF938091E40155
S11305B0811106C10E9982C08091E701811103C0A7
S11305C084E491E09EDD8091E7018130B9F484E414
S11305D091E097DD28DF8CE491E093DD80ED91E0FC
S11305E04ADF8CE491E08DDD80ED91E044DF69DF4A
S11305F060E081E0C3DE80ED91E0B4DE8091E7014C
S1130600823009F0F0C020910001809101019091A5
S11306100201A0910301B0910401820F911DA11D5B
S1130620B11D8093010190930201A0930301B09343
S1130630040189339440A105B10560F088EF92E08C
S1130640A0E0B0E08093010190930201A093030124
S1130650B093040160910101709102018091030142
S11306609091040126D2809104018F93809103011B
S11306708F93809102018F93809101018F9384E580
S113068091E09F938F938CEB91E09F938F9376D21D
S11306908CEB91E052DF60E081E070DE8CEB91E066
S11306A061DE88E591E05EDE62DF8DB79EB7089675
S11306B00FB6F8949EBF0FBE8DBF95C08091E70121
S11306C0811103C08CE591E01CDD8091E70181304C
S11306D0B9F48CE591E015DDA6DE8CE491E011DD42
S11306E080ED91E0C8DE8CE491E00BDD80ED91E0DB
S11306F0C2DEE7DE60E081E041DE80ED91E032DEE3
S11307008091E701823009F06EC020910001809150
S1130710010190910201A0910301B0910401821B97
S11307209109A109B1098093010190930201A09359
S11307300301B0930401883F9240A105B10560F420
S113074088E394E0A0E0B0E080930101909302017B
S1130750A0930301B093040160910101709102011F
S11307608091030190910401A4D1809104018F939D
S1130770809103018F93809102018F9380910101F5
S11307808F9384E591E09F938F938CEB91E09F93FB
S11307908F93F4D18CEB91E0D0DE60E081E0EEDD6C
S11307A08CEB91E0DFDD88E591E0DCDDE0DE8DB708
S11307B09EB708960FB6F8949EBF0FBE8DBF13C0A8
S11307C00E9911C08091E701813069F48091E801AC
S11307D08F5F8093E801833010F01092E8018091DC
S11307E0E80190E0FBDD9FEF29E688E1915020408D
S11307F08040E1F700C00000FF91EF91BF91AF91FD
S11308009F918F917F916F915F914F913F912F9124
S11308100F900BBE0F900FBE0F901F901895CF93A3
S1130820C82F811116C081E0D4DC8CE291E09ADDFE
S113083083E391E097DD2FEF89E698E12150804032
S11308409040E1F700C000001092620084E691E05D
S113085058DCC13089F481E0BCDC8CE291E082DDBB
S113086087E391E07FDD8EE691E04BDC8091E80147
S113087090E0B4DD10926200C23009F050C081E013
S1130880A8DC8CE291E06EDD8BE391E06BDD88E720
S113089091E037DC81E0809362002FEF89E698E1F4
S11308A0215080409040E1F700C0000060910101B8
S11308B0709102018091030190910401FAD080911A
S11308C004018F93809103018F93809102018F9390
S11308D0809101018F9384E591E09F938F938CEB3A
S11308E091E09F938F934AD18CEB91E026DE60E0F8
S11308F081E044DD8CEB91E035DD88E591E032DD8B
S11309006DE081E03BDD82E891E02CDD30DE8DB7E7
S11309109EB708960FB6F8949EBF0FBE8DBFCF91B9
S113092008951F920F920FB60F9211240BB60F92D7
S11309302F933F934F935F936F937F938F939F93E3
S1130940AF93BF93EF93FF930C990AC086E082BFE5
S113095081E08093E4011092E6011092E50143C026
S11309601092E4018091E5019091E601803A9F4064
S113097094F08091E7018F5F8093E701833010F05A
S11309801092E7018091E70190E049DF1092E601BF
S11309901092E50128C08091E701811103C086E827
S11309A091E0AFDB8091E701813019F48EE891E0AA
S11309B0A8DB8091E7018230B1F48091000181309D
S11309C051F48AE0809300016DE081E0D7DC88E98E
S11309D091E0C8DC08C081E0809300016DE0CEDCCA
S11309E082E891E0BFDCFF91EF91BF91AF919F91BD
S11309F08F917F916F915F914F913F912F910F90C4
S1130A000BBE0F900FBE0F901F9018955EDBBEDCDF
S1130A10C5DC8CE991E075DB2FEF83EF91E0215089
S1130A2080409040E1F700C0000012B891DB0FDC79
S1130A3063E080E0A3DC86EA91E094DC60E081E09E
S1130A409DDC82EB91E08EDC2FEF8DE399E4215065
S1130A5080409040E1F700C0000081E0BADB809163
S1130A60E701DDDE81E0809361000895CFDF1CC0E3
S1130A708CE491E046DB80ED91E0FDDC8CE491E0D8
S1130A8040DB80ED91E0F7DC1CDD60E081E076DCAA
S1130A9080ED91E067DC2FEF89E698E121508040FA
S1130AA09040E1F700C000008091E701813001F33C
S1130AB0FBCF9B01AC01E9EEF1E088EC82838EE18F
S1130AC0838380E4848360E87AE186E090E02ED03A
S1130AD0DC01CB01805A9B4BAD40B109072E7FE06E
S1130AE0B695A795979587957A95D1F7702D9083AC
S1130AF0818340E050E06CE070E080EC0EDB20E0AD
S1130B0030E00FC0F901E751FE4F808180937300FC
S1130B1084E880937400809174008823E4F72F5F45
S1130B203F4F2530310574F30FCB0895DB018F93CC
S1130B309F930BD0BF91AF91A29F800D911DA39F56
S1130B40900DB29F900D1124089509D0A59F900D8A
S1130B50B49F900DA49F800D911D11240895A29F10
S1130B60B001B39FC001A39F700D811D1124911D7D
S1130B70B29F700D811D1124911D08950F931F9331
S1130B80CF93DF93CDB7DEB72E970FB6F894DEBFC1
S1130B900FBECDBF0D891E8986E08C831A8309831D
S1130BA08FEF9FE79E838D83AE01475E5F4F6F8912
S1130BB0788DCE01019610D0EF81F885E00FF11FFA
S1130BC010822E960FB6F894DEBF0FBECDBFDF9114
S1130BD0CF911F910F9108952F923F924F925F9260
S1130BE06F927F928F929F92AF92BF92CF92DF9239
S1130BF0EF92FF920F931F93CF93DF93CDB7DEB79E
S1130C002B970FB6F894DEBF0FBECDBF6C017B01EE
S1130C108A01FC0117821682838181FFBFC1CE0144
S1130C2001963C01F6019381F70193FD859193FFB1
S1130C3081917F01882309F4ADC1853239F493FD94
S1130C40859193FF81917F01853221F4B60190E073
S1130C50D6D1E8CF912C212C312CFFE1F315D8F01B
S1130C608B3279F038F4803279F08332A1F4232D79
S1130C7020611DC08D3261F0803369F4232D216021
S1130C8016C0832D8260382EE32DE4603E2E2AC0E8
S1130C90F32DF8601DC037FC2DC020ED280F2A303D
S1130CA040F08E32B9F436FC75C1232D2064322E07
S1130CB019C036FE06C08AE0989E200D1124922E9B
S1130CC011C0EAE02E9E200D1124222EF32DF06295
S1130CD03F2E08C08C3621F4832D8068382E02C044
S1130CE0883641F4F70193FD859193FF81917F014B
S1130CF08111B3CF982F9F7D9554933028F40C5FC6
S1130D001F4F9FE399830DC0833631F0833771F011
S1130D10833509F055C020C0F801808189830E5FB6
S1130D201F4F88248394912C530112C02801F2E0B0
S1130D304F0E511CF801A080B18036FE03C0692D0E
S1130D4070E002C06FEF7FEFC5014ED14C0182010C
S1130D50F32DFF773F2E15C0280122E0420E511CCF
S1130D60F801A080B18036FE03C0692D70E002C096
S1130D706FEF7FEFC5012DD14C01F32DF0683F2EAD
S1130D80820133FC19C0822D90E088169906A0F4E4
S1130D90B60180E290E033D12A94F5CFF50137FC17
S1130DA0859137FE81915F01B60190E028D1211031
S1130DB02A9421E0821A91088114910479F7E1C000
S1130DC0843611F0893639F5F80137FE07C06081A1
S1130DD07181828193810C5F1F4F08C06081718192
S1130DE0072E000C880B990B0E5F1F4FF32DFF7617
S1130DF03F2E97FF09C090958095709561957F4F20
S1130E008F4F9F4FF0683F2E2AE030E0A30133D18B
S1130E10882E861844C0853731F4232D2F7EB22EB8
S1130E202AE030E025C0932D997FB92E8F36C1F08A
S1130E3018F4883579F0AEC0803719F0883721F07E
S1130E40A9C0E92FE061BE2EB4FE0DC0FB2DF460F5
S1130E50BF2E09C034FE0AC0292F2660B22E06C058
S1130E6028E030E005C020E130E002C020E132E0BB
S1130E70F801B7FE07C060817181828193810C5FA4
S1130E801F4F06C06081718180E090E00E5F1F4FAC
S1130E90A301F1D0882E8618FB2DFF773F2E36FE56
S1130EA00DC0232D2E7FA22E891458F434FE0BC0BE
S1130EB032FC09C0832D8E7EA82E05C0B82CA32C2D
S1130EC003C0B82C01C0B92CA4FE0FC0FE01E80D6C
S1130ED0F11D8081803321F49A2D997EA92E09C0B9
S1130EE0A2FE06C0B394B39404C08A2D867809F098
S1130EF0B394A3FC10C0A0FE06C0B21480F4280C66
S1130F00922C9B180DC0B21458F4B60180E290E004
S1130F1076D0B394F8CFB21418F42B1802C0982CDE
S1130F20212CA4FE0FC0B60180E390E068D0A2FE9D
S1130F3016C0A1FC03C088E790E002C088E590E0F9
S1130F40B6010CC08A2D867851F0A1FE02C08BE256
S1130F5001C080E2A7FC8DE2B60190E050D0891474
S1130F6030F4B60180E390E04AD09A94F8CF8A94A2
S1130F70F301E80DF11D8081B60190E040D08110AD
S1130F80F6CF222009F44ECEB60180E290E037D0AD
S1130F902A94F7CFF6018681978102C08FEF9FEFE5
S1130FA02B960FB6F894DEBF0FBECDBFDF91CF9165
S1130FB01F910F91FF90EF90DF90CF90BF90AF9073
S1130FC09F908F907F906F905F904F903F902F9065
S1130FD00895FC010590615070400110D8F7809588
S1130FE090958E0F9F1F0895FC01615070400190F1
S1130FF00110D8F7809590958E0F9F1F08950F9339
S11310001F93CF93DF93FB01238121FD03C08FEF57
S11310109FEF2CC022FF16C0468157812481358161
S11310204217530744F4A081B1819D012F5F3F4FC4
S1131030318320838C93268137812F5F3F4F378301
S1131040268314C08B01EC01FB010084F185E02DA3
S11310500995892BE1F6D80116968D919C911797E5
S1131060019617969C938E931697CE01DF91CF919C
S11310701F910F910895FA01AA27283051F12031C8
S113108081F1E8946F936E7F6E5F7F4F8F4F9F4F18
S1131090AF4FB1E03ED0B4E03CD0670F781F891F5A
S11310A09A1FA11D680F791F8A1F911DA11D6A0F28
S11310B0711D811D911DA11D20D009F468943F91DB
S11310C02AE0269F11243019305D3193DEF6CF01DA
S11310D00895462F4770405D4193B3E00FD0C9F7A0
S11310E0F6CF462F4F70405D4A3318F0495D31FD0D
S11310F04052419302D0A9F7EACFB4E0A695979560
S1131100879577956795BA95C9F700976105710535
S113111008959B01AC010A2E06945795479537957F
S11311202795BA95C9F7620F731F841F951FA01DD9
S10911300895F894FFCFBE
S113113601A303000041542B414330300D0A0052F1
S1131146650041542B414330320D0A004F6E004175
S1131156542B414330330D0A005261004D4F444530
S11311663A2000424C450055534200464D205261F8
S113117664696F0041542B43430D0A0041542B4DBF
S1131186460D0A00253464004D487A0041542B4329
S1131196440D0A0041542B434D30310D0A0041548D
S11311A62B434D30320D0A0041542B434D30380D3C
S11311B60A002078310041542B43420D0A00415461
S11311C62B414130330D0A007831300041542B4312
S11311D64132300D0A002A4A5F537065616B6572AD
S10F11E62A00626567696E2E2E2E000040
S9030000FC
